{
  "_format": "hh-sol-artifact-1",
  "contractName": "MyContract",
  "sourceName": "contracts/MyContract.sol",
  "abi": [
    {
      "inputs": [],
      "stateMutability": "nonpayable",
      "type": "constructor"
    },
    {
      "anonymous": false,
      "inputs": [
        {
          "indexed": false,
          "internalType": "uint256",
          "name": "id",
          "type": "uint256"
        },
        {
          "indexed": false,
          "internalType": "string",
          "name": "name",
          "type": "string"
        }
      ],
      "name": "CandidateAdded",
      "type": "event"
    },
    {
      "anonymous": false,
      "inputs": [
        {
          "indexed": false,
          "internalType": "address",
          "name": "oldEC",
          "type": "address"
        },
        {
          "indexed": false,
          "internalType": "address",
          "name": "newEC",
          "type": "address"
        }
      ],
      "name": "ECTransferred",
      "type": "event"
    },
    {
      "anonymous": false,
      "inputs": [
        {
          "indexed": false,
          "internalType": "bytes32",
          "name": "nullifierHash",
          "type": "bytes32"
        },
        {
          "indexed": false,
          "internalType": "uint256",
          "name": "candidateId",
          "type": "uint256"
        }
      ],
      "name": "VoteCasted",
      "type": "event"
    },
    {
      "anonymous": false,
      "inputs": [
        {
          "indexed": false,
          "internalType": "address",
          "name": "voter",
          "type": "address"
        }
      ],
      "name": "VoterRegistered",
      "type": "event"
    },
    {
      "anonymous": false,
      "inputs": [],
      "name": "VotingEnded",
      "type": "event"
    },
    {
      "anonymous": false,
      "inputs": [],
      "name": "VotingStarted",
      "type": "event"
    },
    {
      "inputs": [
        {
          "internalType": "string",
          "name": "_name",
          "type": "string"
        }
      ],
      "name": "addCandidate",
      "outputs": [],
      "stateMutability": "nonpayable",
      "type": "function"
    },
    {
      "inputs": [
        {
          "internalType": "uint256",
          "name": "",
          "type": "uint256"
        }
      ],
      "name": "candidates",
      "outputs": [
        {
          "internalType": "uint256",
          "name": "id",
          "type": "uint256"
        },
        {
          "internalType": "string",
          "name": "name",
          "type": "string"
        },
        {
          "internalType": "uint256",
          "name": "voteCount",
          "type": "uint256"
        }
      ],
      "stateMutability": "view",
      "type": "function"
    },
    {
      "inputs": [],
      "name": "candidatesCount",
      "outputs": [
        {
          "internalType": "uint256",
          "name": "",
          "type": "uint256"
        }
      ],
      "stateMutability": "view",
      "type": "function"
    },
    {
      "inputs": [],
      "name": "electionCommission",
      "outputs": [
        {
          "internalType": "address",
          "name": "",
          "type": "address"
        }
      ],
      "stateMutability": "view",
      "type": "function"
    },
    {
      "inputs": [],
      "name": "endVoting",
      "outputs": [],
      "stateMutability": "nonpayable",
      "type": "function"
    },
    {
      "inputs": [],
      "name": "getAllCandidates",
      "outputs": [
        {
          "components": [
            {
              "internalType": "uint256",
              "name": "id",
              "type": "uint256"
            },
            {
              "internalType": "string",
              "name": "name",
              "type": "string"
            },
            {
              "internalType": "uint256",
              "name": "voteCount",
              "type": "uint256"
            }
          ],
          "internalType": "struct MyContract.Candidate[]",
          "name": "",
          "type": "tuple[]"
        }
      ],
      "stateMutability": "view",
      "type": "function"
    },
    {
      "inputs": [
        {
          "internalType": "uint256",
          "name": "_id",
          "type": "uint256"
        }
      ],
      "name": "getCandidateVotes",
      "outputs": [
        {
          "internalType": "uint256",
          "name": "",
          "type": "uint256"
        }
      ],
      "stateMutability": "view",
      "type": "function"
    },
    {
      "inputs": [],
      "name": "getResults",
      "outputs": [
        {
          "internalType": "string[]",
          "name": "winnerNames",
          "type": "string[]"
        },
        {
          "internalType": "uint256",
          "name": "winnerVotes",
          "type": "uint256"
        }
      ],
      "stateMutability": "view",
      "type": "function"
    },
    {
      "inputs": [
        {
          "internalType": "address",
          "name": "_voter",
          "type": "address"
        }
      ],
      "name": "getVoter",
      "outputs": [
        {
          "internalType": "bool",
          "name": "isRegistered",
          "type": "bool"
        },
        {
          "internalType": "bool",
          "name": "hasVoted",
          "type": "bool"
        },
        {
          "internalType": "string",
          "name": "name",
          "type": "string"
        }
      ],
      "stateMutability": "view",
      "type": "function"
    },
    {
      "inputs": [
        {
          "internalType": "bytes32",
          "name": "",
          "type": "bytes32"
        }
      ],
      "name": "nullifierHashes",
      "outputs": [
        {
          "internalType": "bool",
          "name": "",
          "type": "bool"
        }
      ],
      "stateMutability": "view",
      "type": "function"
    },
    {
      "inputs": [
        {
          "internalType": "address",
          "name": "_voter",
          "type": "address"
        },
        {
          "internalType": "string",
          "name": "_name",
          "type": "string"
        }
      ],
      "name": "registerVoter",
      "outputs": [],
      "stateMutability": "nonpayable",
      "type": "function"
    },
    {
      "inputs": [
        {
          "internalType": "uint256",
          "name": "",
          "type": "uint256"
        }
      ],
      "name": "registeredVoters",
      "outputs": [
        {
          "internalType": "address",
          "name": "",
          "type": "address"
        }
      ],
      "stateMutability": "view",
      "type": "function"
    },
    {
      "inputs": [],
      "name": "resetElection",
      "outputs": [],
      "stateMutability": "nonpayable",
      "type": "function"
    },
    {
      "inputs": [],
      "name": "startVoting",
      "outputs": [],
      "stateMutability": "nonpayable",
      "type": "function"
    },
    {
      "inputs": [
        {
          "internalType": "address",
          "name": "newEC",
          "type": "address"
        }
      ],
      "name": "transferEC",
      "outputs": [],
      "stateMutability": "nonpayable",
      "type": "function"
    },
    {
      "inputs": [
        {
          "internalType": "uint256",
          "name": "_candidateId",
          "type": "uint256"
        },
        {
          "internalType": "bytes32",
          "name": "nullifierHash",
          "type": "bytes32"
        }
      ],
      "name": "vote",
      "outputs": [],
      "stateMutability": "nonpayable",
      "type": "function"
    },
    {
      "inputs": [
        {
          "internalType": "address",
          "name": "",
          "type": "address"
        }
      ],
      "name": "voters",
      "outputs": [
        {
          "internalType": "bool",
          "name": "isRegistered",
          "type": "bool"
        },
        {
          "internalType": "bool",
          "name": "hasVoted",
          "type": "bool"
        },
        {
          "internalType": "string",
          "name": "name",
          "type": "string"
        }
      ],
      "stateMutability": "view",
      "type": "function"
    },
    {
      "inputs": [],
      "name": "votingEnded",
      "outputs": [
        {
          "internalType": "bool",
          "name": "",
          "type": "bool"
        }
      ],
      "stateMutability": "view",
      "type": "function"
    },
    {
      "inputs": [],
      "name": "votingStarted",
      "outputs": [
        {
          "internalType": "bool",
          "name": "",
          "type": "bool"
        }
      ],
      "stateMutability": "view",
      "type": "function"
    }
  ],
  "bytecode": "0x608060405234801561001057600080fd5b50336000806101000a81548173ffffffffffffffffffffffffffffffffffffffff021916908373ffffffffffffffffffffffffffffffffffffffff160217905550612eab806100606000396000f3fe608060405234801561001057600080fd5b50600436106101215760003560e01c806383d948b7116100ad578063c3403ddf11610071578063c3403ddf14610311578063d3b0566a1461031b578063d4f50f9814610337578063e8f3052314610369578063ebbb4f841461037357610121565b806383d948b714610255578063866163c0146102735780639d5a0529146102a3578063a3ec138d146102c1578063aab46b7f146102f357610121565b80632e6997fe116100f45780632e6997fe146101ae5780633477ee2e146101cc578063462e91ec146101fe5780634717f97c1461021a57806368bb8bb61461023957610121565b806317cc915c146101265780631ec6b60a146101565780632436e06b146101605780632d35a8a214610190575b600080fd5b610140600480360381019061013b9190611a1e565b61038f565b60405161014d9190611a66565b60405180910390f35b61015e6103af565b005b61017a60048036038101906101759190611ab7565b61051b565b6040516101879190611b25565b60405180910390f35b61019861055a565b6040516101a59190611b4f565b60405180910390f35b6101b6610560565b6040516101c39190611d1b565b60405180910390f35b6101e660048036038101906101e19190611ab7565b6106d5565b6040516101f593929190611d87565b60405180910390f35b61021860048036038101906102139190611efa565b610787565b005b6102226109f6565b604051610230929190612005565b60405180910390f35b610253600480360381019061024e9190612035565b610c5e565b005b61025d610e44565b60405161026a9190611a66565b60405180910390f35b61028d60048036038101906102889190611ab7565b610e57565b60405161029a9190611b4f565b60405180910390f35b6102ab610ec7565b6040516102b89190611a66565b60405180910390f35b6102db60048036038101906102d691906120a1565b610eda565b6040516102ea939291906120ce565b60405180910390f35b6102fb610fa6565b6040516103089190611b25565b60405180910390f35b610319610fca565b005b610335600480360381019061033091906120a1565b611140565b005b610351600480360381019061034c91906120a1565b6112d9565b604051610360939291906120ce565b60405180910390f35b610371611411565b005b61038d6004803603810190610388919061210c565b611670565b005b60036020528060005260406000206000915054906101000a900460ff1681565b60008054906101000a900473ffffffffffffffffffffffffffffffffffffffff1673ffffffffffffffffffffffffffffffffffffffff163373ffffffffffffffffffffffffffffffffffffffff161461043d576040517f08c379a0000000000000000000000000000000000000000000000000000000008152600401610434906121b4565b60405180910390fd5b600060149054906101000a900460ff161561048d576040517f08c379a000000000000000000000000000000000000000000000000000000000815260040161048490612220565b60405180910390fd5b6000600554116104d2576040517f08c379a00000000000000000000000000000000000000000000000000000000081526004016104c99061228c565b60405180910390fd5b6001600060146101000a81548160ff0219169083151502179055507f877e2548498f42b7975a186b94ef1d32c86d420b7b806dd2be2bea293b89590460405160405180910390a1565b6004818154811061052b57600080fd5b906000526020600020016000915054906101000a900473ffffffffffffffffffffffffffffffffffffffff1681565b60055481565b6060600060055467ffffffffffffffff8111156105805761057f611dcf565b5b6040519080825280602002602001820160405280156105b957816020015b6105a6611935565b81526020019060019003908161059e5790505b5090506000600190505b60055481116106cd576001600082815260200190815260200160002060405180606001604052908160008201548152602001600182018054610604906122db565b80601f0160208091040260200160405190810160405280929190818152602001828054610630906122db565b801561067d5780601f106106525761010080835404028352916020019161067d565b820191906000526020600020905b81548152906001019060200180831161066057829003601f168201915b505050505081526020016002820154815250508260018361069e919061233b565b815181106106af576106ae61236f565b5b602002602001018190525080806106c59061239e565b9150506105c3565b508091505090565b60016020528060005260406000206000915090508060000154908060010180546106fe906122db565b80601f016020809104026020016040519081016040528092919081815260200182805461072a906122db565b80156107775780601f1061074c57610100808354040283529160200191610777565b820191906000526020600020905b81548152906001019060200180831161075a57829003601f168201915b5050505050908060020154905083565b60008054906101000a900473ffffffffffffffffffffffffffffffffffffffff1673ffffffffffffffffffffffffffffffffffffffff163373ffffffffffffffffffffffffffffffffffffffff1614610815576040517f08c379a000000000000000000000000000000000000000000000000000000000815260040161080c906121b4565b60405180910390fd5b600060149054906101000a900460ff1615610865576040517f08c379a000000000000000000000000000000000000000000000000000000000815260040161085c90612458565b60405180910390fd5b60008151116108a9576040517f08c379a00000000000000000000000000000000000000000000000000000000081526004016108a0906124c4565b60405180910390fd5b6000600190505b600554811161093f578180519060200120600160008381526020019081526020016000206001016040516108e49190612587565b60405180910390200361092c576040517f08c379a0000000000000000000000000000000000000000000000000000000008152600401610923906125ea565b60405180910390fd5b80806109379061239e565b9150506108b0565b50600560008154809291906109539061239e565b91905055506040518060600160405280600554815260200182815260200160008152506001600060055481526020019081526020016000206000820151816000015560208201518160010190816109aa91906127b6565b50604082015181600201559050507fe83b2a43e7e82d975c8a0a6d2f045153c869e111136a34d1889ab7b598e396a3600554826040516109eb929190612888565b60405180910390a150565b606060008060159054906101000a900460ff16610a48576040517f08c379a0000000000000000000000000000000000000000000000000000000008152600401610a3f90612904565b60405180910390fd5b6000806000600190505b6005548111610ae8578260016000838152602001908152602001600020600201541115610a9b576001600082815260200190815260200160002060020154925060019150610ad5565b826001600083815260200190815260200160002060020154148015610ac05750600083115b15610ad4578180610ad09061239e565b9250505b5b8080610ae09061239e565b915050610a52565b508067ffffffffffffffff811115610b0357610b02611dcf565b5b604051908082528060200260200182016040528015610b3657816020015b6060815260200190600190039081610b215790505b509350600080600190505b6005548111610c5357836001600083815260200190815260200160002060020154148015610b6f5750600084115b15610c4057600160008281526020019081526020016000206001018054610b95906122db565b80601f0160208091040260200160405190810160405280929190818152602001828054610bc1906122db565b8015610c0e5780601f10610be357610100808354040283529160200191610c0e565b820191906000526020600020905b815481529060010190602001808311610bf157829003601f168201915b5050505050868381518110610c2657610c2561236f565b5b60200260200101819052508180610c3c9061239e565b9250505b8080610c4b9061239e565b915050610b41565b508293505050509091565b600060149054906101000a900460ff16610cad576040517f08c379a0000000000000000000000000000000000000000000000000000000008152600401610ca490612970565b60405180910390fd5b600060159054906101000a900460ff1615610cfd576040517f08c379a0000000000000000000000000000000000000000000000000000000008152600401610cf4906129dc565b60405180910390fd5b600082118015610d0f57506005548211155b610d4e576040517f08c379a0000000000000000000000000000000000000000000000000000000008152600401610d4590612a48565b60405180910390fd5b6003600082815260200190815260200160002060009054906101000a900460ff1615610daf576040517f08c379a0000000000000000000000000000000000000000000000000000000008152600401610da690612ada565b60405180910390fd5b60016003600083815260200190815260200160002060006101000a81548160ff021916908315150217905550600160008381526020019081526020016000206002016000815480929190610e029061239e565b91905055507fbf8e3be76511fbc133be248f8ea28794eaaec7574547d2ce1a374f36a1674aa28183604051610e38929190612b09565b60405180910390a15050565b600060149054906101000a900460ff1681565b60008082118015610e6a57506005548211155b610ea9576040517f08c379a0000000000000000000000000000000000000000000000000000000008152600401610ea090612b7e565b60405180910390fd5b60016000838152602001908152602001600020600201549050919050565b600060159054906101000a900460ff1681565b60026020528060005260406000206000915090508060000160009054906101000a900460ff16908060000160019054906101000a900460ff1690806001018054610f23906122db565b80601f0160208091040260200160405190810160405280929190818152602001828054610f4f906122db565b8015610f9c5780601f10610f7157610100808354040283529160200191610f9c565b820191906000526020600020905b815481529060010190602001808311610f7f57829003601f168201915b5050505050905083565b60008054906101000a900473ffffffffffffffffffffffffffffffffffffffff1681565b60008054906101000a900473ffffffffffffffffffffffffffffffffffffffff1673ffffffffffffffffffffffffffffffffffffffff163373ffffffffffffffffffffffffffffffffffffffff1614611058576040517f08c379a000000000000000000000000000000000000000000000000000000000815260040161104f906121b4565b60405180910390fd5b600060149054906101000a900460ff166110a7576040517f08c379a000000000000000000000000000000000000000000000000000000000815260040161109e90612bea565b60405180910390fd5b600060159054906101000a900460ff16156110f7576040517f08c379a00000000000000000000000000000000000000000000000000000000081526004016110ee90612c56565b60405180910390fd5b6001600060156101000a81548160ff0219169083151502179055507f7a19ed057db79e3c2fa0b97a54b43bef4fce74b31bb6c01af514b9a18a7f70ab60405160405180910390a1565b60008054906101000a900473ffffffffffffffffffffffffffffffffffffffff1673ffffffffffffffffffffffffffffffffffffffff163373ffffffffffffffffffffffffffffffffffffffff16146111ce576040517f08c379a00000000000000000000000000000000000000000000000000000000081526004016111c5906121b4565b60405180910390fd5b600073ffffffffffffffffffffffffffffffffffffffff168173ffffffffffffffffffffffffffffffffffffffff160361123d576040517f08c379a000000000000000000000000000000000000000000000000000000000815260040161123490612cc2565b60405180910390fd5b7fd07dd9d628a110b5ca0fedcdc55da6c022c5643b3e63ac0221764baa431124d860008054906101000a900473ffffffffffffffffffffffffffffffffffffffff168260405161128e929190612ce2565b60405180910390a1806000806101000a81548173ffffffffffffffffffffffffffffffffffffffff021916908373ffffffffffffffffffffffffffffffffffffffff16021790555050565b60008060606000600260008673ffffffffffffffffffffffffffffffffffffffff1673ffffffffffffffffffffffffffffffffffffffff1681526020019081526020016000206040518060600160405290816000820160009054906101000a900460ff161515151581526020016000820160019054906101000a900460ff16151515158152602001600182018054611370906122db565b80601f016020809104026020016040519081016040528092919081815260200182805461139c906122db565b80156113e95780601f106113be576101008083540402835291602001916113e9565b820191906000526020600020905b8154815290600101906020018083116113cc57829003601f168201915b5050505050815250509050806000015181602001518260400151935093509350509193909250565b60008054906101000a900473ffffffffffffffffffffffffffffffffffffffff1673ffffffffffffffffffffffffffffffffffffffff163373ffffffffffffffffffffffffffffffffffffffff161461149f576040517f08c379a0000000000000000000000000000000000000000000000000000000008152600401611496906121b4565b60405180910390fd5b600060159054906101000a900460ff166114ee576040517f08c379a00000000000000000000000000000000000000000000000000000000081526004016114e590612d57565b60405180910390fd5b6000600190505b6005548111611547576001600082815260200190815260200160002060008082016000905560018201600061152a9190611956565b60028201600090555050808061153f9061239e565b9150506114f5565b50600060058190555060005b60048054905081101561162b5760026000600483815481106115785761157761236f565b5b9060005260206000200160009054906101000a900473ffffffffffffffffffffffffffffffffffffffff1673ffffffffffffffffffffffffffffffffffffffff1673ffffffffffffffffffffffffffffffffffffffff168152602001908152602001600020600080820160006101000a81549060ff02191690556000820160016101000a81549060ff02191690556001820160006116169190611956565b505080806116239061239e565b915050611553565b506004600061163a9190611996565b60008060146101000a81548160ff02191690831515021790555060008060156101000a81548160ff021916908315150217905550565b60008054906101000a900473ffffffffffffffffffffffffffffffffffffffff1673ffffffffffffffffffffffffffffffffffffffff163373ffffffffffffffffffffffffffffffffffffffff16146116fe576040517f08c379a00000000000000000000000000000000000000000000000000000000081526004016116f5906121b4565b60405180910390fd5b600060149054906101000a900460ff161561174e576040517f08c379a000000000000000000000000000000000000000000000000000000000815260040161174590612de9565b60405180910390fd5b600260008373ffffffffffffffffffffffffffffffffffffffff1673ffffffffffffffffffffffffffffffffffffffff16815260200190815260200160002060000160009054906101000a900460ff16156117de576040517f08c379a00000000000000000000000000000000000000000000000000000000081526004016117d590612e55565b60405180910390fd5b604051806060016040528060011515815260200160001515815260200182815250600260008473ffffffffffffffffffffffffffffffffffffffff1673ffffffffffffffffffffffffffffffffffffffff16815260200190815260200160002060008201518160000160006101000a81548160ff02191690831515021790555060208201518160000160016101000a81548160ff021916908315150217905550604082015181600101908161189391906127b6565b509050506004829080600181540180825580915050600190039060005260206000200160009091909190916101000a81548173ffffffffffffffffffffffffffffffffffffffff021916908373ffffffffffffffffffffffffffffffffffffffff1602179055507fb6be2187d059cc2a55fe29e0e503b566e1e0f8c8780096e185429350acffd3dd826040516119299190611b25565b60405180910390a15050565b60405180606001604052806000815260200160608152602001600081525090565b508054611962906122db565b6000825580601f106119745750611993565b601f01602090049060005260206000209081019061199291906119b7565b5b50565b50805460008255906000526020600020908101906119b491906119b7565b50565b5b808211156119d05760008160009055506001016119b8565b5090565b6000604051905090565b600080fd5b600080fd5b6000819050919050565b6119fb816119e8565b8114611a0657600080fd5b50565b600081359050611a18816119f2565b92915050565b600060208284031215611a3457611a336119de565b5b6000611a4284828501611a09565b91505092915050565b60008115159050919050565b611a6081611a4b565b82525050565b6000602082019050611a7b6000830184611a57565b92915050565b6000819050919050565b611a9481611a81565b8114611a9f57600080fd5b50565b600081359050611ab181611a8b565b92915050565b600060208284031215611acd57611acc6119de565b5b6000611adb84828501611aa2565b91505092915050565b600073ffffffffffffffffffffffffffffffffffffffff82169050919050565b6000611b0f82611ae4565b9050919050565b611b1f81611b04565b82525050565b6000602082019050611b3a6000830184611b16565b92915050565b611b4981611a81565b82525050565b6000602082019050611b646000830184611b40565b92915050565b600081519050919050565b600082825260208201905092915050565b6000819050602082019050919050565b611b9f81611a81565b82525050565b600081519050919050565b600082825260208201905092915050565b60005b83811015611bdf578082015181840152602081019050611bc4565b60008484015250505050565b6000601f19601f8301169050919050565b6000611c0782611ba5565b611c118185611bb0565b9350611c21818560208601611bc1565b611c2a81611beb565b840191505092915050565b6000606083016000830151611c4d6000860182611b96565b5060208301518482036020860152611c658282611bfc565b9150506040830151611c7a6040860182611b96565b508091505092915050565b6000611c918383611c35565b905092915050565b6000602082019050919050565b6000611cb182611b6a565b611cbb8185611b75565b935083602082028501611ccd85611b86565b8060005b85811015611d095784840389528151611cea8582611c85565b9450611cf583611c99565b925060208a01995050600181019050611cd1565b50829750879550505050505092915050565b60006020820190508181036000830152611d358184611ca6565b905092915050565b600082825260208201905092915050565b6000611d5982611ba5565b611d638185611d3d565b9350611d73818560208601611bc1565b611d7c81611beb565b840191505092915050565b6000606082019050611d9c6000830186611b40565b8181036020830152611dae8185611d4e565b9050611dbd6040830184611b40565b949350505050565b600080fd5b600080fd5b7f4e487b7100000000000000000000000000000000000000000000000000000000600052604160045260246000fd5b611e0782611beb565b810181811067ffffffffffffffff82111715611e2657611e25611dcf565b5b80604052505050565b6000611e396119d4565b9050611e458282611dfe565b919050565b600067ffffffffffffffff821115611e6557611e64611dcf565b5b611e6e82611beb565b9050602081019050919050565b82818337600083830152505050565b6000611e9d611e9884611e4a565b611e2f565b905082815260208101848484011115611eb957611eb8611dca565b5b611ec4848285611e7b565b509392505050565b600082601f830112611ee157611ee0611dc5565b5b8135611ef1848260208601611e8a565b91505092915050565b600060208284031215611f1057611f0f6119de565b5b600082013567ffffffffffffffff811115611f2e57611f2d6119e3565b5b611f3a84828501611ecc565b91505092915050565b600081519050919050565b600082825260208201905092915050565b6000819050602082019050919050565b6000611f7b8383611bfc565b905092915050565b6000602082019050919050565b6000611f9b82611f43565b611fa58185611f4e565b935083602082028501611fb785611f5f565b8060005b85811015611ff35784840389528151611fd48582611f6f565b9450611fdf83611f83565b925060208a01995050600181019050611fbb565b50829750879550505050505092915050565b6000604082019050818103600083015261201f8185611f90565b905061202e6020830184611b40565b9392505050565b6000806040838503121561204c5761204b6119de565b5b600061205a85828601611aa2565b925050602061206b85828601611a09565b9150509250929050565b61207e81611b04565b811461208957600080fd5b50565b60008135905061209b81612075565b92915050565b6000602082840312156120b7576120b66119de565b5b60006120c58482850161208c565b91505092915050565b60006060820190506120e36000830186611a57565b6120f06020830185611a57565b81810360408301526121028184611d4e565b9050949350505050565b60008060408385031215612123576121226119de565b5b60006121318582860161208c565b925050602083013567ffffffffffffffff811115612152576121516119e3565b5b61215e85828601611ecc565b9150509250929050565b7f4f6e6c7920456c656374696f6e20436f6d6d697373696f6e20616c6c6f776564600082015250565b600061219e602083611d3d565b91506121a982612168565b602082019050919050565b600060208201905081810360008301526121cd81612191565b9050919050565b7f566f74696e6720616c7265616479207374617274656400000000000000000000600082015250565b600061220a601683611d3d565b9150612215826121d4565b602082019050919050565b60006020820190508181036000830152612239816121fd565b9050919050565b7f4e6f2063616e6469646174657320616464656400000000000000000000000000600082015250565b6000612276601383611d3d565b915061228182612240565b602082019050919050565b600060208201905081810360008301526122a581612269565b9050919050565b7f4e487b7100000000000000000000000000000000000000000000000000000000600052602260045260246000fd5b600060028204905060018216806122f357607f821691505b602082108103612306576123056122ac565b5b50919050565b7f4e487b7100000000000000000000000000000000000000000000000000000000600052601160045260246000fd5b600061234682611a81565b915061235183611a81565b92508282039050818111156123695761236861230c565b5b92915050565b7f4e487b7100000000000000000000000000000000000000000000000000000000600052603260045260246000fd5b60006123a982611a81565b91507fffffffffffffffffffffffffffffffffffffffffffffffffffffffffffffffff82036123db576123da61230c565b5b600182019050919050565b7f43616e6e6f74206164642063616e64696461746520616674657220766f74696e60008201527f6720737461727473000000000000000000000000000000000000000000000000602082015250565b6000612442602883611d3d565b915061244d826123e6565b604082019050919050565b6000602082019050818103600083015261247181612435565b9050919050565b7f43616e646964617465206e616d65207265717569726564000000000000000000600082015250565b60006124ae601783611d3d565b91506124b982612478565b602082019050919050565b600060208201905081810360008301526124dd816124a1565b9050919050565b600081905092915050565b60008190508160005260206000209050919050565b60008154612511816122db565b61251b81866124e4565b94506001821660008114612536576001811461254b5761257e565b60ff198316865281151582028601935061257e565b612554856124ef565b60005b8381101561257657815481890152600182019150602081019050612557565b838801955050505b50505092915050565b60006125938284612504565b915081905092915050565b7f43616e64696461746520616c7265616479206578697374730000000000000000600082015250565b60006125d4601883611d3d565b91506125df8261259e565b602082019050919050565b60006020820190508181036000830152612603816125c7565b9050919050565b60008190508160005260206000209050919050565b60006020601f8301049050919050565b600082821b905092915050565b60006008830261266c7fffffffffffffffffffffffffffffffffffffffffffffffffffffffffffffffff8261262f565b612676868361262f565b95508019841693508086168417925050509392505050565b6000819050919050565b60006126b36126ae6126a984611a81565b61268e565b611a81565b9050919050565b6000819050919050565b6126cd83612698565b6126e16126d9826126ba565b84845461263c565b825550505050565b600090565b6126f66126e9565b6127018184846126c4565b505050565b5b818110156127255761271a6000826126ee565b600181019050612707565b5050565b601f82111561276a5761273b8161260a565b6127448461261f565b81016020851015612753578190505b61276761275f8561261f565b830182612706565b50505b505050565b600082821c905092915050565b600061278d6000198460080261276f565b1980831691505092915050565b60006127a6838361277c565b9150826002028217905092915050565b6127bf82611ba5565b67ffffffffffffffff8111156127d8576127d7611dcf565b5b6127e282546122db565b6127ed828285612729565b600060209050601f831160018114612820576000841561280e578287015190505b612818858261279a565b865550612880565b601f19841661282e8661260a565b60005b8281101561285657848901518255600182019150602085019450602081019050612831565b86831015612873578489015161286f601f89168261277c565b8355505b6001600288020188555050505b505050505050565b600060408201905061289d6000830185611b40565b81810360208301526128af8184611d4e565b90509392505050565b7f566f74696e67206973206e6f742079657420656e646564000000000000000000600082015250565b60006128ee601783611d3d565b91506128f9826128b8565b602082019050919050565b6000602082019050818103600083015261291d816128e1565b9050919050565b7f566f74696e6720686173206e6f74207374617274656400000000000000000000600082015250565b600061295a601683611d3d565b915061296582612924565b602082019050919050565b600060208201905081810360008301526129898161294d565b9050919050565b7f566f74696e672068617320656e64656400000000000000000000000000000000600082015250565b60006129c6601083611d3d565b91506129d182612990565b602082019050919050565b600060208201905081810360008301526129f5816129b9565b9050919050565b7f496e76616c69642063616e646964617465000000000000000000000000000000600082015250565b6000612a32601183611d3d565b9150612a3d826129fc565b602082019050919050565b60006020820190508181036000830152612a6181612a25565b9050919050565b7f566f746520616c72656164792063617374207769746820746869732070726f6f60008201527f6600000000000000000000000000000000000000000000000000000000000000602082015250565b6000612ac4602183611d3d565b9150612acf82612a68565b604082019050919050565b60006020820190508181036000830152612af381612ab7565b9050919050565b612b03816119e8565b82525050565b6000604082019050612b1e6000830185612afa565b612b2b6020830184611b40565b9392505050565b7f496e76616c69642063616e646964617465204944000000000000000000000000600082015250565b6000612b68601483611d3d565b9150612b7382612b32565b602082019050919050565b60006020820190508181036000830152612b9781612b5b565b9050919050565b7f566f74696e67206e6f7420737461727465642079657400000000000000000000600082015250565b6000612bd4601683611d3d565b9150612bdf82612b9e565b602082019050919050565b60006020820190508181036000830152612c0381612bc7565b9050919050565b7f566f74696e6720616c726561647920656e646564000000000000000000000000600082015250565b6000612c40601483611d3d565b9150612c4b82612c0a565b602082019050919050565b60006020820190508181036000830152612c6f81612c33565b9050919050565b7f496e76616c696420616464726573730000000000000000000000000000000000600082015250565b6000612cac600f83611d3d565b9150612cb782612c76565b602082019050919050565b60006020820190508181036000830152612cdb81612c9f565b9050919050565b6000604082019050612cf76000830185611b16565b612d046020830184611b16565b9392505050565b7f43616e206f6e6c7920726573657420616674657220766f74696e6720656e6473600082015250565b6000612d41602083611d3d565b9150612d4c82612d0b565b602082019050919050565b60006020820190508181036000830152612d7081612d34565b9050919050565b7f43616e6e6f7420726567697374657220616674657220766f74696e672073746160008201527f7274730000000000000000000000000000000000000000000000000000000000602082015250565b6000612dd3602383611d3d565b9150612dde82612d77565b604082019050919050565b60006020820190508181036000830152612e0281612dc6565b9050919050565b7f566f74657220616c726561647920726567697374657265640000000000000000600082015250565b6000612e3f601883611d3d565b9150612e4a82612e09565b602082019050919050565b60006020820190508181036000830152612e6e81612e32565b905091905056fea2646970667358221220a0e33bbf7cb1a71f6c17ae0b3718b6d771fef01fe344b914b8874524085bfb4464736f6c63430008140033",
  "linkReferences": {},
  "deployedLinkReferences": {}
}